{
  "contractName": "KYC",
  "abi": [
    {
      "inputs": [],
      "stateMutability": "nonpayable",
      "type": "constructor"
    },
    {
      "inputs": [
        {
          "internalType": "string",
          "name": "_bankName",
          "type": "string"
        },
        {
          "internalType": "address",
          "name": "_bankAddress",
          "type": "address"
        },
        {
          "internalType": "string",
          "name": "_regNumber",
          "type": "string"
        }
      ],
      "name": "addBank",
      "outputs": [],
      "stateMutability": "nonpayable",
      "type": "function"
    },
    {
      "inputs": [
        {
          "internalType": "address",
          "name": "_bankAddress",
          "type": "address"
        },
        {
          "internalType": "bool",
          "name": "value",
          "type": "bool"
        }
      ],
      "name": "isBankAllowedToVote",
      "outputs": [],
      "stateMutability": "nonpayable",
      "type": "function"
    },
    {
      "inputs": [
        {
          "internalType": "address",
          "name": "_bankAddress",
          "type": "address"
        }
      ],
      "name": "removeBank",
      "outputs": [],
      "stateMutability": "nonpayable",
      "type": "function"
    },
    {
      "inputs": [
        {
          "internalType": "string",
          "name": "_userName",
          "type": "string"
        },
        {
          "internalType": "string",
          "name": "_customerData",
          "type": "string"
        }
      ],
      "name": "addRequest",
      "outputs": [],
      "stateMutability": "nonpayable",
      "type": "function"
    },
    {
      "inputs": [
        {
          "internalType": "string",
          "name": "_userName",
          "type": "string"
        },
        {
          "internalType": "string",
          "name": "_customerData",
          "type": "string"
        }
      ],
      "name": "addCustomer",
      "outputs": [],
      "stateMutability": "nonpayable",
      "type": "function"
    },
    {
      "inputs": [
        {
          "internalType": "string",
          "name": "_userName",
          "type": "string"
        }
      ],
      "name": "removeRequests",
      "outputs": [],
      "stateMutability": "nonpayable",
      "type": "function"
    },
    {
      "inputs": [
        {
          "internalType": "string",
          "name": "_userName",
          "type": "string"
        }
      ],
      "name": "viewCustomer",
      "outputs": [
        {
          "internalType": "string",
          "name": "",
          "type": "string"
        },
        {
          "internalType": "string",
          "name": "",
          "type": "string"
        },
        {
          "internalType": "bool",
          "name": "",
          "type": "bool"
        },
        {
          "internalType": "uint256",
          "name": "",
          "type": "uint256"
        },
        {
          "internalType": "uint256",
          "name": "",
          "type": "uint256"
        },
        {
          "internalType": "address",
          "name": "",
          "type": "address"
        }
      ],
      "stateMutability": "view",
      "type": "function"
    },
    {
      "inputs": [
        {
          "internalType": "string",
          "name": "_userName",
          "type": "string"
        }
      ],
      "name": "upvoteCustomer",
      "outputs": [],
      "stateMutability": "nonpayable",
      "type": "function"
    },
    {
      "inputs": [
        {
          "internalType": "string",
          "name": "_userName",
          "type": "string"
        }
      ],
      "name": "downvoteCustomer",
      "outputs": [],
      "stateMutability": "nonpayable",
      "type": "function"
    },
    {
      "inputs": [
        {
          "internalType": "string",
          "name": "_userName",
          "type": "string"
        },
        {
          "internalType": "string",
          "name": "_newcustomerData",
          "type": "string"
        }
      ],
      "name": "modifyCustomer",
      "outputs": [],
      "stateMutability": "nonpayable",
      "type": "function"
    },
    {
      "inputs": [
        {
          "internalType": "address",
          "name": "_bankAddress",
          "type": "address"
        }
      ],
      "name": "getBankComplaints",
      "outputs": [
        {
          "internalType": "uint256",
          "name": "",
          "type": "uint256"
        }
      ],
      "stateMutability": "view",
      "type": "function"
    },
    {
      "inputs": [
        {
          "internalType": "address",
          "name": "_bankAddress",
          "type": "address"
        }
      ],
      "name": "viewBankDetails",
      "outputs": [
        {
          "internalType": "string",
          "name": "",
          "type": "string"
        },
        {
          "internalType": "address",
          "name": "",
          "type": "address"
        },
        {
          "internalType": "uint256",
          "name": "",
          "type": "uint256"
        },
        {
          "internalType": "uint256",
          "name": "",
          "type": "uint256"
        },
        {
          "internalType": "bool",
          "name": "",
          "type": "bool"
        },
        {
          "internalType": "string",
          "name": "",
          "type": "string"
        }
      ],
      "stateMutability": "view",
      "type": "function"
    },
    {
      "inputs": [
        {
          "internalType": "address",
          "name": "_bankAddress",
          "type": "address"
        }
      ],
      "name": "reportBank",
      "outputs": [],
      "stateMutability": "nonpayable",
      "type": "function"
    }
  ],
  "bytecode": "0x608060405234801561001057600080fd5b50336000806101000a81548173ffffffffffffffffffffffffffffffffffffffff021916908373ffffffffffffffffffffffffffffffffffffffff160217905550613e44806100606000396000f3fe608060405234801561001057600080fd5b50600436106100cf5760003560e01c80639649650c1161008c578063ccfa8e7111610066578063ccfa8e7114610216578063d38bf64914610232578063f2f4ed8f1461024e578063f72860ca1461026a576100cf565b80639649650c146101c2578063a5a49800146101de578063b9da4af8146101fa576100cf565b8063107925bb146100d45780633190abc0146101095780635ec2a7f214610125578063687217f5146101555780637d38d7111461017157806388cc8d8d1461018d575b600080fd5b6100ee60048036038101906100e99190613024565b610286565b6040516101009695949392919061316a565b60405180910390f35b610123600480360381019061011e91906131d9565b610636565b005b61013f600480360381019061013a919061327d565b610a02565b60405161014c91906132aa565b60405180910390f35b61016f600480360381019061016a91906132f1565b610bf1565b005b61018b60048036038101906101869190613024565b610e1d565b005b6101a760048036038101906101a2919061327d565b6112d6565b6040516101b996959493929190613331565b60405180910390f35b6101dc60048036038101906101d7919061327d565b61176e565b005b6101f860048036038101906101f3919061327d565b611a06565b005b610214600480360381019061020f91906131d9565b611e19565b005b610230600480360381019061022b91906133a0565b6120c5565b005b61024c60048036038101906102479190613024565b6124cd565b005b61026860048036038101906102639190613024565b6126bb565b005b610284600480360381019061027f91906131d9565b612b74565b005b606080600080600080600073ffffffffffffffffffffffffffffffffffffffff166001886040516102b79190613467565b908152602001604051809103902060050160009054906101000a900473ffffffffffffffffffffffffffffffffffffffff1673ffffffffffffffffffffffffffffffffffffffff161415610340576040517f08c379a0000000000000000000000000000000000000000000000000000000008152600401610337906134f0565b60405180910390fd5b600073ffffffffffffffffffffffffffffffffffffffff16600260003373ffffffffffffffffffffffffffffffffffffffff1673ffffffffffffffffffffffffffffffffffffffff16815260200190815260200160002060010160009054906101000a900473ffffffffffffffffffffffffffffffffffffffff1673ffffffffffffffffffffffffffffffffffffffff161415610412576040517f08c379a000000000000000000000000000000000000000000000000000000000815260040161040990613582565b60405180910390fd5b6001876040516104229190613467565b90815260200160405180910390206000016001886040516104439190613467565b90815260200160405180910390206001016001896040516104649190613467565b908152602001604051809103902060020160009054906101000a900460ff1660018a6040516104939190613467565b90815260200160405180910390206003015460018b6040516104b59190613467565b90815260200160405180910390206004015460018c6040516104d79190613467565b908152602001604051809103902060050160009054906101000a900473ffffffffffffffffffffffffffffffffffffffff16858054610515906135d1565b80601f0160208091040260200160405190810160405280929190818152602001828054610541906135d1565b801561058e5780601f106105635761010080835404028352916020019161058e565b820191906000526020600020905b81548152906001019060200180831161057157829003601f168201915b505050505095508480546105a1906135d1565b80601f01602080910402602001604051908101604052809291908181526020018280546105cd906135d1565b801561061a5780601f106105ef5761010080835404028352916020019161061a565b820191906000526020600020905b8154815290600101906020018083116105fd57829003601f168201915b5050505050945095509550955095509550955091939550919395565b600073ffffffffffffffffffffffffffffffffffffffff1660018360405161065e9190613467565b908152602001604051809103902060050160009054906101000a900473ffffffffffffffffffffffffffffffffffffffff1673ffffffffffffffffffffffffffffffffffffffff16146106e6576040517f08c379a00000000000000000000000000000000000000000000000000000000081526004016106dd906136c1565b60405180910390fd5b600073ffffffffffffffffffffffffffffffffffffffff1660048360405161070e9190613467565b908152602001604051809103902060020160009054906101000a900473ffffffffffffffffffffffffffffffffffffffff1673ffffffffffffffffffffffffffffffffffffffff161415610797576040517f08c379a000000000000000000000000000000000000000000000000000000000815260040161078e90613753565b60405180910390fd5b600073ffffffffffffffffffffffffffffffffffffffff16600260003373ffffffffffffffffffffffffffffffffffffffff1673ffffffffffffffffffffffffffffffffffffffff16815260200190815260200160002060010160009054906101000a900473ffffffffffffffffffffffffffffffffffffffff1673ffffffffffffffffffffffffffffffffffffffff161415610869576040517f08c379a000000000000000000000000000000000000000000000000000000000815260040161086090613582565b60405180910390fd5b8160018360405161087a9190613467565b9081526020016040518091039020600001908051906020019061089e929190612de7565b50806001836040516108b09190613467565b908152602001604051809103902060010190805190602001906108d4929190612de7565b5060006001836040516108e79190613467565b908152602001604051809103902060020160006101000a81548160ff02191690831515021790555060006001836040516109219190613467565b90815260200160405180910390206003018190555060006001836040516109489190613467565b90815260200160405180910390206004018190555060048260405161096d9190613467565b908152602001604051809103902060020160009054906101000a900473ffffffffffffffffffffffffffffffffffffffff166001836040516109af9190613467565b908152602001604051809103902060050160006101000a81548173ffffffffffffffffffffffffffffffffffffffff021916908373ffffffffffffffffffffffffffffffffffffffff1602179055505050565b60008073ffffffffffffffffffffffffffffffffffffffff16600260008473ffffffffffffffffffffffffffffffffffffffff1673ffffffffffffffffffffffffffffffffffffffff16815260200190815260200160002060010160009054906101000a900473ffffffffffffffffffffffffffffffffffffffff1673ffffffffffffffffffffffffffffffffffffffff161415610ad5576040517f08c379a0000000000000000000000000000000000000000000000000000000008152600401610acc906137bf565b60405180910390fd5b600073ffffffffffffffffffffffffffffffffffffffff16600260003373ffffffffffffffffffffffffffffffffffffffff1673ffffffffffffffffffffffffffffffffffffffff16815260200190815260200160002060010160009054906101000a900473ffffffffffffffffffffffffffffffffffffffff1673ffffffffffffffffffffffffffffffffffffffff161415610ba7576040517f08c379a0000000000000000000000000000000000000000000000000000000008152600401610b9e90613582565b60405180910390fd5b600260008373ffffffffffffffffffffffffffffffffffffffff1673ffffffffffffffffffffffffffffffffffffffff168152602001908152602001600020600201549050919050565b60008054906101000a900473ffffffffffffffffffffffffffffffffffffffff1673ffffffffffffffffffffffffffffffffffffffff163373ffffffffffffffffffffffffffffffffffffffff1614610c7f576040517f08c379a0000000000000000000000000000000000000000000000000000000008152600401610c7690613851565b60405180910390fd5b600073ffffffffffffffffffffffffffffffffffffffff168273ffffffffffffffffffffffffffffffffffffffff161415610cef576040517f08c379a0000000000000000000000000000000000000000000000000000000008152600401610ce6906138bd565b60405180910390fd5b8173ffffffffffffffffffffffffffffffffffffffff16600260008473ffffffffffffffffffffffffffffffffffffffff1673ffffffffffffffffffffffffffffffffffffffff16815260200190815260200160002060010160009054906101000a900473ffffffffffffffffffffffffffffffffffffffff1673ffffffffffffffffffffffffffffffffffffffff1614610dbf576040517f08c379a0000000000000000000000000000000000000000000000000000000008152600401610db690613929565b60405180910390fd5b80600260008473ffffffffffffffffffffffffffffffffffffffff1673ffffffffffffffffffffffffffffffffffffffff16815260200190815260200160002060040160006101000a81548160ff0219169083151502179055505050565b600073ffffffffffffffffffffffffffffffffffffffff16600182604051610e459190613467565b908152602001604051809103902060050160009054906101000a900473ffffffffffffffffffffffffffffffffffffffff1673ffffffffffffffffffffffffffffffffffffffff161415610ece576040517f08c379a0000000000000000000000000000000000000000000000000000000008152600401610ec5906134f0565b60405180910390fd5b600073ffffffffffffffffffffffffffffffffffffffff16600260003373ffffffffffffffffffffffffffffffffffffffff1673ffffffffffffffffffffffffffffffffffffffff16815260200190815260200160002060010160009054906101000a900473ffffffffffffffffffffffffffffffffffffffff1673ffffffffffffffffffffffffffffffffffffffff161415610fa0576040517f08c379a0000000000000000000000000000000000000000000000000000000008152600401610f9790613582565b60405180910390fd5b600260003373ffffffffffffffffffffffffffffffffffffffff1673ffffffffffffffffffffffffffffffffffffffff16815260200190815260200160002060040160009054906101000a900460ff1661102f576040517f08c379a000000000000000000000000000000000000000000000000000000000815260040161102690613995565b60405180910390fd5b60058160405161103f9190613467565b908152602001604051809103902060003373ffffffffffffffffffffffffffffffffffffffff1673ffffffffffffffffffffffffffffffffffffffff16815260200190815260200160002060009054906101000a900460ff16156110d8576040517f08c379a00000000000000000000000000000000000000000000000000000000081526004016110cf90613a27565b60405180910390fd5b600180826040516110e99190613467565b908152602001604051809103902060030160008282546111099190613a76565b9250508190555060016005826040516111229190613467565b908152602001604051809103902060003373ffffffffffffffffffffffffffffffffffffffff1673ffffffffffffffffffffffffffffffffffffffff16815260200190815260200160002060006101000a81548160ff0219169083151502179055506003546001826040516111979190613467565b9081526020016040518091039020600301546001836040516111b99190613467565b9081526020016040518091039020600401546111d59190613a76565b14801561122357506001816040516111ed9190613467565b90815260200160405180910390206003015460018260405161120f9190613467565b908152602001604051809103902060040154115b1561126257600180826040516112399190613467565b908152602001604051809103902060020160006101000a81548160ff0219169083151502179055505b600380546112709190613afb565b6001826040516112809190613467565b90815260200160405180910390206003015411156112d35760006001826040516112aa9190613467565b908152602001604051809103902060020160006101000a81548160ff0219169083151502179055505b50565b60606000806000806060600073ffffffffffffffffffffffffffffffffffffffff16600260008973ffffffffffffffffffffffffffffffffffffffff1673ffffffffffffffffffffffffffffffffffffffff16815260200190815260200160002060010160009054906101000a900473ffffffffffffffffffffffffffffffffffffffff1673ffffffffffffffffffffffffffffffffffffffff1614156113b2576040517f08c379a00000000000000000000000000000000000000000000000000000000081526004016113a9906137bf565b60405180910390fd5b600073ffffffffffffffffffffffffffffffffffffffff16600260003373ffffffffffffffffffffffffffffffffffffffff1673ffffffffffffffffffffffffffffffffffffffff16815260200190815260200160002060010160009054906101000a900473ffffffffffffffffffffffffffffffffffffffff1673ffffffffffffffffffffffffffffffffffffffff161415611484576040517f08c379a000000000000000000000000000000000000000000000000000000000815260040161147b90613582565b60405180910390fd5b600260008873ffffffffffffffffffffffffffffffffffffffff1673ffffffffffffffffffffffffffffffffffffffff168152602001908152602001600020600001600260008973ffffffffffffffffffffffffffffffffffffffff1673ffffffffffffffffffffffffffffffffffffffff16815260200190815260200160002060010160009054906101000a900473ffffffffffffffffffffffffffffffffffffffff16600260008a73ffffffffffffffffffffffffffffffffffffffff1673ffffffffffffffffffffffffffffffffffffffff16815260200190815260200160002060020154600260008b73ffffffffffffffffffffffffffffffffffffffff1673ffffffffffffffffffffffffffffffffffffffff16815260200190815260200160002060030154600260008c73ffffffffffffffffffffffffffffffffffffffff1673ffffffffffffffffffffffffffffffffffffffff16815260200190815260200160002060040160009054906101000a900460ff16600260008d73ffffffffffffffffffffffffffffffffffffffff1673ffffffffffffffffffffffffffffffffffffffff16815260200190815260200160002060050185805461164d906135d1565b80601f0160208091040260200160405190810160405280929190818152602001828054611679906135d1565b80156116c65780601f1061169b576101008083540402835291602001916116c6565b820191906000526020600020905b8154815290600101906020018083116116a957829003601f168201915b505050505095508080546116d9906135d1565b80601f0160208091040260200160405190810160405280929190818152602001828054611705906135d1565b80156117525780601f1061172757610100808354040283529160200191611752565b820191906000526020600020905b81548152906001019060200180831161173557829003601f168201915b5050505050905095509550955095509550955091939550919395565b60008054906101000a900473ffffffffffffffffffffffffffffffffffffffff1673ffffffffffffffffffffffffffffffffffffffff163373ffffffffffffffffffffffffffffffffffffffff16146117fc576040517f08c379a00000000000000000000000000000000000000000000000000000000081526004016117f390613b78565b60405180910390fd5b600073ffffffffffffffffffffffffffffffffffffffff168173ffffffffffffffffffffffffffffffffffffffff16141561186c576040517f08c379a0000000000000000000000000000000000000000000000000000000008152600401611863906138bd565b60405180910390fd5b8073ffffffffffffffffffffffffffffffffffffffff16600260008373ffffffffffffffffffffffffffffffffffffffff1673ffffffffffffffffffffffffffffffffffffffff16815260200190815260200160002060010160009054906101000a900473ffffffffffffffffffffffffffffffffffffffff1673ffffffffffffffffffffffffffffffffffffffff161461193c576040517f08c379a000000000000000000000000000000000000000000000000000000000815260040161193390613be4565b60405180910390fd5b60016003600082825461194f9190613c04565b92505081905550600260008273ffffffffffffffffffffffffffffffffffffffff1673ffffffffffffffffffffffffffffffffffffffff168152602001908152602001600020600080820160006119a69190612e6d565b6001820160006101000a81549073ffffffffffffffffffffffffffffffffffffffff0219169055600282016000905560038201600090556004820160006101000a81549060ff0219169055600582016000611a019190612e6d565b505050565b600073ffffffffffffffffffffffffffffffffffffffff16600260008373ffffffffffffffffffffffffffffffffffffffff1673ffffffffffffffffffffffffffffffffffffffff16815260200190815260200160002060010160009054906101000a900473ffffffffffffffffffffffffffffffffffffffff1673ffffffffffffffffffffffffffffffffffffffff161415611ad8576040517f08c379a0000000000000000000000000000000000000000000000000000000008152600401611acf906137bf565b60405180910390fd5b600073ffffffffffffffffffffffffffffffffffffffff16600260003373ffffffffffffffffffffffffffffffffffffffff1673ffffffffffffffffffffffffffffffffffffffff16815260200190815260200160002060010160009054906101000a900473ffffffffffffffffffffffffffffffffffffffff1673ffffffffffffffffffffffffffffffffffffffff161415611baa576040517f08c379a0000000000000000000000000000000000000000000000000000000008152600401611ba190613582565b60405180910390fd5b600660008273ffffffffffffffffffffffffffffffffffffffff1673ffffffffffffffffffffffffffffffffffffffff16815260200190815260200160002060003373ffffffffffffffffffffffffffffffffffffffff1673ffffffffffffffffffffffffffffffffffffffff16815260200190815260200160002060009054906101000a900460ff1615611c74576040517f08c379a0000000000000000000000000000000000000000000000000000000008152600401611c6b90613c84565b60405180910390fd5b6001600260008373ffffffffffffffffffffffffffffffffffffffff1673ffffffffffffffffffffffffffffffffffffffff1681526020019081526020016000206002016000828254611cc79190613a76565b925050819055506001600660008373ffffffffffffffffffffffffffffffffffffffff1673ffffffffffffffffffffffffffffffffffffffff16815260200190815260200160002060003373ffffffffffffffffffffffffffffffffffffffff1673ffffffffffffffffffffffffffffffffffffffff16815260200190815260200160002060006101000a81548160ff02191690831515021790555060038054611d719190613afb565b600260008373ffffffffffffffffffffffffffffffffffffffff1673ffffffffffffffffffffffffffffffffffffffff168152602001908152602001600020600201541115611e16576000600260008373ffffffffffffffffffffffffffffffffffffffff1673ffffffffffffffffffffffffffffffffffffffff16815260200190815260200160002060040160006101000a81548160ff0219169083151502179055505b50565b600073ffffffffffffffffffffffffffffffffffffffff16600483604051611e419190613467565b908152602001604051809103902060020160009054906101000a900473ffffffffffffffffffffffffffffffffffffffff1673ffffffffffffffffffffffffffffffffffffffff1614611ec9576040517f08c379a0000000000000000000000000000000000000000000000000000000008152600401611ec090613d16565b60405180910390fd5b600073ffffffffffffffffffffffffffffffffffffffff16600260003373ffffffffffffffffffffffffffffffffffffffff1673ffffffffffffffffffffffffffffffffffffffff16815260200190815260200160002060010160009054906101000a900473ffffffffffffffffffffffffffffffffffffffff1673ffffffffffffffffffffffffffffffffffffffff161415611f9b576040517f08c379a0000000000000000000000000000000000000000000000000000000008152600401611f9290613582565b60405180910390fd5b81600483604051611fac9190613467565b90815260200160405180910390206000019080519060200190611fd0929190612de7565b5080600483604051611fe29190613467565b90815260200160405180910390206001019080519060200190612006929190612de7565b50336004836040516120189190613467565b908152602001604051809103902060020160006101000a81548173ffffffffffffffffffffffffffffffffffffffff021916908373ffffffffffffffffffffffffffffffffffffffff1602179055506001600260003373ffffffffffffffffffffffffffffffffffffffff1673ffffffffffffffffffffffffffffffffffffffff16815260200190815260200160002060030160008282546120ba9190613a76565b925050819055505050565b60008054906101000a900473ffffffffffffffffffffffffffffffffffffffff1673ffffffffffffffffffffffffffffffffffffffff163373ffffffffffffffffffffffffffffffffffffffff1614612153576040517f08c379a000000000000000000000000000000000000000000000000000000000815260040161214a90613d82565b60405180910390fd5b600073ffffffffffffffffffffffffffffffffffffffff168273ffffffffffffffffffffffffffffffffffffffff1614156121c3576040517f08c379a00000000000000000000000000000000000000000000000000000000081526004016121ba906138bd565b60405180910390fd5b8173ffffffffffffffffffffffffffffffffffffffff16600260008473ffffffffffffffffffffffffffffffffffffffff1673ffffffffffffffffffffffffffffffffffffffff16815260200190815260200160002060010160009054906101000a900473ffffffffffffffffffffffffffffffffffffffff1673ffffffffffffffffffffffffffffffffffffffff161415612294576040517f08c379a000000000000000000000000000000000000000000000000000000000815260040161228b90613dee565b60405180910390fd5b82600260008473ffffffffffffffffffffffffffffffffffffffff1673ffffffffffffffffffffffffffffffffffffffff16815260200190815260200160002060000190805190602001906122ea929190612de7565b5081600260008473ffffffffffffffffffffffffffffffffffffffff1673ffffffffffffffffffffffffffffffffffffffff16815260200190815260200160002060010160006101000a81548173ffffffffffffffffffffffffffffffffffffffff021916908373ffffffffffffffffffffffffffffffffffffffff1602179055506000600260008473ffffffffffffffffffffffffffffffffffffffff1673ffffffffffffffffffffffffffffffffffffffff168152602001908152602001600020600201819055506000600260008473ffffffffffffffffffffffffffffffffffffffff1673ffffffffffffffffffffffffffffffffffffffff168152602001908152602001600020600301819055506001600260008473ffffffffffffffffffffffffffffffffffffffff1673ffffffffffffffffffffffffffffffffffffffff16815260200190815260200160002060040160006101000a81548160ff02191690831515021790555080600260008473ffffffffffffffffffffffffffffffffffffffff1673ffffffffffffffffffffffffffffffffffffffff16815260200190815260200160002060050190805190602001906124ad929190612de7565b506001600360008282546124c19190613a76565b92505081905550505050565b600073ffffffffffffffffffffffffffffffffffffffff166004826040516124f59190613467565b908152602001604051809103902060020160009054906101000a900473ffffffffffffffffffffffffffffffffffffffff1673ffffffffffffffffffffffffffffffffffffffff16141561257e576040517f08c379a000000000000000000000000000000000000000000000000000000000815260040161257590613753565b60405180910390fd5b600073ffffffffffffffffffffffffffffffffffffffff16600260003373ffffffffffffffffffffffffffffffffffffffff1673ffffffffffffffffffffffffffffffffffffffff16815260200190815260200160002060010160009054906101000a900473ffffffffffffffffffffffffffffffffffffffff1673ffffffffffffffffffffffffffffffffffffffff161415612650576040517f08c379a000000000000000000000000000000000000000000000000000000000815260040161264790613582565b60405180910390fd5b6004816040516126609190613467565b90815260200160405180910390206000808201600061267f9190612e6d565b60018201600061268f9190612e6d565b6002820160006101000a81549073ffffffffffffffffffffffffffffffffffffffff0219169055505050565b600073ffffffffffffffffffffffffffffffffffffffff166001826040516126e39190613467565b908152602001604051809103902060050160009054906101000a900473ffffffffffffffffffffffffffffffffffffffff1673ffffffffffffffffffffffffffffffffffffffff16141561276c576040517f08c379a0000000000000000000000000000000000000000000000000000000008152600401612763906134f0565b60405180910390fd5b600073ffffffffffffffffffffffffffffffffffffffff16600260003373ffffffffffffffffffffffffffffffffffffffff1673ffffffffffffffffffffffffffffffffffffffff16815260200190815260200160002060010160009054906101000a900473ffffffffffffffffffffffffffffffffffffffff1673ffffffffffffffffffffffffffffffffffffffff16141561283e576040517f08c379a000000000000000000000000000000000000000000000000000000000815260040161283590613582565b60405180910390fd5b600260003373ffffffffffffffffffffffffffffffffffffffff1673ffffffffffffffffffffffffffffffffffffffff16815260200190815260200160002060040160009054906101000a900460ff166128cd576040517f08c379a00000000000000000000000000000000000000000000000000000000081526004016128c490613995565b60405180910390fd5b6005816040516128dd9190613467565b908152602001604051809103902060003373ffffffffffffffffffffffffffffffffffffffff1673ffffffffffffffffffffffffffffffffffffffff16815260200190815260200160002060009054906101000a900460ff1615612976576040517f08c379a000000000000000000000000000000000000000000000000000000000815260040161296d90613a27565b60405180910390fd5b600180826040516129879190613467565b908152602001604051809103902060040160008282546129a79190613a76565b9250508190555060016005826040516129c09190613467565b908152602001604051809103902060003373ffffffffffffffffffffffffffffffffffffffff1673ffffffffffffffffffffffffffffffffffffffff16815260200190815260200160002060006101000a81548160ff021916908315150217905550600354600182604051612a359190613467565b908152602001604051809103902060030154600183604051612a579190613467565b908152602001604051809103902060040154612a739190613a76565b148015612ac15750600181604051612a8b9190613467565b908152602001604051809103902060030154600182604051612aad9190613467565b908152602001604051809103902060040154115b15612b005760018082604051612ad79190613467565b908152602001604051809103902060020160006101000a81548160ff0219169083151502179055505b60038054612b0e9190613afb565b600182604051612b1e9190613467565b9081526020016040518091039020600301541115612b71576000600182604051612b489190613467565b908152602001604051809103902060020160006101000a81548160ff0219169083151502179055505b50565b600073ffffffffffffffffffffffffffffffffffffffff16600183604051612b9c9190613467565b908152602001604051809103902060050160009054906101000a900473ffffffffffffffffffffffffffffffffffffffff1673ffffffffffffffffffffffffffffffffffffffff161415612c25576040517f08c379a0000000000000000000000000000000000000000000000000000000008152600401612c1c906134f0565b60405180910390fd5b600073ffffffffffffffffffffffffffffffffffffffff16600260003373ffffffffffffffffffffffffffffffffffffffff1673ffffffffffffffffffffffffffffffffffffffff16815260200190815260200160002060010160009054906101000a900473ffffffffffffffffffffffffffffffffffffffff1673ffffffffffffffffffffffffffffffffffffffff161415612cf7576040517f08c379a0000000000000000000000000000000000000000000000000000000008152600401612cee90613582565b60405180910390fd5b80600183604051612d089190613467565b90815260200160405180910390206001019080519060200190612d2c929190612de7565b506000600183604051612d3f9190613467565b9081526020016040518091039020600401819055506000600183604051612d669190613467565b908152602001604051809103902060030181905550600482604051612d8b9190613467565b908152602001604051809103902060008082016000612daa9190612e6d565b600182016000612dba9190612e6d565b6002820160006101000a81549073ffffffffffffffffffffffffffffffffffffffff021916905550505050565b828054612df3906135d1565b90600052602060002090601f016020900481019282612e155760008555612e5c565b82601f10612e2e57805160ff1916838001178555612e5c565b82800160010185558215612e5c579182015b82811115612e5b578251825591602001919060010190612e40565b5b509050612e699190612ead565b5090565b508054612e79906135d1565b6000825580601f10612e8b5750612eaa565b601f016020900490600052602060002090810190612ea99190612ead565b5b50565b5b80821115612ec6576000816000905550600101612eae565b5090565b6000604051905090565b600080fd5b600080fd5b600080fd5b600080fd5b6000601f19601f8301169050919050565b7f4e487b7100000000000000000000000000000000000000000000000000000000600052604160045260246000fd5b612f3182612ee8565b810181811067ffffffffffffffff82111715612f5057612f4f612ef9565b5b80604052505050565b6000612f63612eca565b9050612f6f8282612f28565b919050565b600067ffffffffffffffff821115612f8f57612f8e612ef9565b5b612f9882612ee8565b9050602081019050919050565b82818337600083830152505050565b6000612fc7612fc284612f74565b612f59565b905082815260208101848484011115612fe357612fe2612ee3565b5b612fee848285612fa5565b509392505050565b600082601f83011261300b5761300a612ede565b5b813561301b848260208601612fb4565b91505092915050565b60006020828403121561303a57613039612ed4565b5b600082013567ffffffffffffffff81111561305857613057612ed9565b5b61306484828501612ff6565b91505092915050565b600081519050919050565b600082825260208201905092915050565b60005b838110156130a757808201518184015260208101905061308c565b838111156130b6576000848401525b50505050565b60006130c78261306d565b6130d18185613078565b93506130e1818560208601613089565b6130ea81612ee8565b840191505092915050565b60008115159050919050565b61310a816130f5565b82525050565b6000819050919050565b61312381613110565b82525050565b600073ffffffffffffffffffffffffffffffffffffffff82169050919050565b600061315482613129565b9050919050565b61316481613149565b82525050565b600060c082019050818103600083015261318481896130bc565b9050818103602083015261319881886130bc565b90506131a76040830187613101565b6131b4606083018661311a565b6131c1608083018561311a565b6131ce60a083018461315b565b979650505050505050565b600080604083850312156131f0576131ef612ed4565b5b600083013567ffffffffffffffff81111561320e5761320d612ed9565b5b61321a85828601612ff6565b925050602083013567ffffffffffffffff81111561323b5761323a612ed9565b5b61324785828601612ff6565b9150509250929050565b61325a81613149565b811461326557600080fd5b50565b60008135905061327781613251565b92915050565b60006020828403121561329357613292612ed4565b5b60006132a184828501613268565b91505092915050565b60006020820190506132bf600083018461311a565b92915050565b6132ce816130f5565b81146132d957600080fd5b50565b6000813590506132eb816132c5565b92915050565b6000806040838503121561330857613307612ed4565b5b600061331685828601613268565b9250506020613327858286016132dc565b9150509250929050565b600060c082019050818103600083015261334b81896130bc565b905061335a602083018861315b565b613367604083018761311a565b613374606083018661311a565b6133816080830185613101565b81810360a083015261339381846130bc565b9050979650505050505050565b6000806000606084860312156133b9576133b8612ed4565b5b600084013567ffffffffffffffff8111156133d7576133d6612ed9565b5b6133e386828701612ff6565b93505060206133f486828701613268565b925050604084013567ffffffffffffffff81111561341557613414612ed9565b5b61342186828701612ff6565b9150509250925092565b600081905092915050565b60006134418261306d565b61344b818561342b565b935061345b818560208601613089565b80840191505092915050565b60006134738284613436565b915081905092915050565b7f437573746f6d6572206973206e6f742070726573656e7420696e20746865206460008201527f6174616261736500000000000000000000000000000000000000000000000000602082015250565b60006134da602783613078565b91506134e58261347e565b604082019050919050565b60006020820190508181036000830152613509816134cd565b9050919050565b7f6f6e6c7920612062616e6b2063616e2063616c6c207468652066756e6374696f60008201527f6e00000000000000000000000000000000000000000000000000000000000000602082015250565b600061356c602183613078565b915061357782613510565b604082019050919050565b6000602082019050818103600083015261359b8161355f565b9050919050565b7f4e487b7100000000000000000000000000000000000000000000000000000000600052602260045260246000fd5b600060028204905060018216806135e957607f821691505b602082108114156135fd576135fc6135a2565b5b50919050565b7f437573746f6d657220697320616c72656164792070726573656e7420696e207460008201527f686520637573746f6d65727327206c6973742c20706c656173652063616c6c2060208201527f6d6f64696679437573746f6d657220746f20656469742074686520637573746f60408201527f6d65722064617461000000000000000000000000000000000000000000000000606082015250565b60006136ab606883613078565b91506136b682613603565b608082019050919050565b600060208201905081810360008301526136da8161369e565b9050919050565b7f437573746f6d6572206973206e6f742070726573656e7420696e20746865204b60008201527f5943207265717565737473000000000000000000000000000000000000000000602082015250565b600061373d602b83613078565b9150613748826136e1565b604082019050919050565b6000602082019050818103600083015261376c81613730565b9050919050565b7f62616e6b20646f6573206e6f7420657869737400000000000000000000000000600082015250565b60006137a9601383613078565b91506137b482613773565b602082019050919050565b600060208201905081810360008301526137d88161379c565b9050919050565b7f6f6e6c792061646d696e2063616e2063616c6c20746869732066756e6374696f60008201527f6e00000000000000000000000000000000000000000000000000000000000000602082015250565b600061383b602183613078565b9150613846826137df565b604082019050919050565b6000602082019050818103600083015261386a8161382e565b9050919050565b7f61646472657373206f6620612062616e6b2063616e6e6f742062652030000000600082015250565b60006138a7601d83613078565b91506138b282613871565b602082019050919050565b600060208201905081810360008301526138d68161389a565b9050919050565b7f7468652062616e6b20646f6573206e6f74206578697374206578697374000000600082015250565b6000613913601d83613078565b915061391e826138dd565b602082019050919050565b6000602082019050818103600083015261394281613906565b9050919050565b7f62616e6b206973206e6f7420616c6c6f77656420746f20766f74650000000000600082015250565b600061397f601b83613078565b915061398a82613949565b602082019050919050565b600060208201905081810360008301526139ae81613972565b9050919050565b7f7468652062616e6b2068617320616c726561647920766f74656420666f72207460008201527f686520637573746f6d6572000000000000000000000000000000000000000000602082015250565b6000613a11602b83613078565b9150613a1c826139b5565b604082019050919050565b60006020820190508181036000830152613a4081613a04565b9050919050565b7f4e487b7100000000000000000000000000000000000000000000000000000000600052601160045260246000fd5b6000613a8182613110565b9150613a8c83613110565b9250827fffffffffffffffffffffffffffffffffffffffffffffffffffffffffffffffff03821115613ac157613ac0613a47565b5b828201905092915050565b7f4e487b7100000000000000000000000000000000000000000000000000000000600052601260045260246000fd5b6000613b0682613110565b9150613b1183613110565b925082613b2157613b20613acc565b5b828204905092915050565b7f6f6e6c792061646d696e2063616e2072656d6f76652062616e6b730000000000600082015250565b6000613b62601b83613078565b9150613b6d82613b2c565b602082019050919050565b60006020820190508181036000830152613b9181613b55565b9050919050565b7f7468652062616e6b20646f6573206e6f74206578697374000000000000000000600082015250565b6000613bce601783613078565b9150613bd982613b98565b602082019050919050565b60006020820190508181036000830152613bfd81613bc1565b9050919050565b6000613c0f82613110565b9150613c1a83613110565b925082821015613c2d57613c2c613a47565b5b828203905092915050565b7f616c7265616479207265706f7274656400000000000000000000000000000000600082015250565b6000613c6e601083613078565b9150613c7982613c38565b602082019050919050565b60006020820190508181036000830152613c9d81613c61565b9050919050565b7f437573746f6d657220697320616c72656164792070726573656e7420696e207460008201527f6865204b59432072657175657374730000000000000000000000000000000000602082015250565b6000613d00602f83613078565b9150613d0b82613ca4565b604082019050919050565b60006020820190508181036000830152613d2f81613cf3565b9050919050565b7f6f6e6c792061646d696e2063616e206164642062616e6b730000000000000000600082015250565b6000613d6c601883613078565b9150613d7782613d36565b602082019050919050565b60006020820190508181036000830152613d9b81613d5f565b9050919050565b7f7468652062616e6b20616c726561647920657869737473000000000000000000600082015250565b6000613dd8601783613078565b9150613de382613da2565b602082019050919050565b60006020820190508181036000830152613e0781613dcb565b905091905056fea264697066735822122072864984e38658b44f2f37415e59e90bc7c8405944b76163ea6318ba2d87eb0864736f6c63430008080033",
  "immutableReferences": {},
  "source": "// SPDX-License-Identifier: GPL-3.0\npragma solidity >=0.7.0 <0.9.0;\n\ncontract KYC {\n    struct Customer {\n        string userName;\n        string data;\n        bool kycStatus;\n        uint256 downvotes;\n        uint256 upvotes;\n        address bank;\n    }\n\n    struct Bank {\n        string name;\n        address ethAddress;\n        uint256 complaintsReported;\n        uint256 KYC_count;\n        bool allowedToVote;\n        string regNumber;\n    }\n\n    struct KYC_request {\n        string userName;\n        string customerData;\n        address bankAddress;\n    }\n\n    address admin;\n    mapping(string => Customer) customers; //customers' list\n    mapping(address => Bank) banks; //list of banks\n    uint256 totalBanks; //variable to keep track of totalBanks in the System\n    mapping(string => KYC_request) requests; //list of KYC requests\n\n    mapping(string => mapping(address => bool)) hasVotedforCustomer; //mapping to ensure banks can only vote for a customer once\n    mapping(address => mapping(address => bool)) hasVotedForBank; //mapping to ensure banks can report other banks only once\n\n    constructor() {\n        //only called once, so admin is set to the address\n        //that deploys the contract\n        admin = msg.sender;\n    }\n\n    function addBank(\n        string memory _bankName,\n        address _bankAddress,\n        string memory _regNumber\n    ) public {\n        require(msg.sender == admin, \"only admin can add banks\");\n        require(_bankAddress != address(0), \"address of a bank cannot be 0\");\n        require(\n            banks[_bankAddress].ethAddress != _bankAddress,\n            \"the bank already exists\"\n        );\n\n        //bank initialization\n        banks[_bankAddress].name = _bankName;\n        banks[_bankAddress].ethAddress = _bankAddress;\n        banks[_bankAddress].complaintsReported = 0;\n        banks[_bankAddress].KYC_count = 0;\n        banks[_bankAddress].allowedToVote = true;\n        banks[_bankAddress].regNumber = _regNumber;\n\n        //increment\n        totalBanks += 1;\n    }\n\n    function isBankAllowedToVote(address _bankAddress, bool value) public {\n        require(msg.sender == admin, \"only admin can call this function\");\n        require(_bankAddress != address(0), \"address of a bank cannot be 0\");\n        require(\n            banks[_bankAddress].ethAddress == _bankAddress,\n            \"the bank does not exist exist\"\n        );\n\n        banks[_bankAddress].allowedToVote = value;\n    }\n\n    function removeBank(address _bankAddress) public {\n        require(msg.sender == admin, \"only admin can remove banks\");\n        require(_bankAddress != address(0), \"address of a bank cannot be 0\");\n        require(\n            banks[_bankAddress].ethAddress == _bankAddress,\n            \"the bank does not exist\"\n        );\n\n        //decrement\n        totalBanks -= 1;\n        delete banks[_bankAddress];\n    }\n\n    function addRequest(string memory _userName, string memory _customerData)\n        public\n    {\n        require(\n            requests[_userName].bankAddress == address(0),\n            \"Customer is already present in the KYC requests\"\n        );\n        require(\n            banks[msg.sender].ethAddress != address(0),\n            \"only a bank can call the function\"\n        );\n\n        requests[_userName].userName = _userName;\n        requests[_userName].customerData = _customerData;\n        requests[_userName].bankAddress = msg.sender;\n\n        //increase in KYC_count after request initialization\n        banks[msg.sender].KYC_count += 1;\n    }\n\n    function addCustomer(string memory _userName, string memory _customerData)\n        public\n    {\n        //only after KYC_request verification, Customer is added to the customers' list\n        require(\n            customers[_userName].bank == address(0),\n            \"Customer is already present in the customers' list, please call modifyCustomer to edit the customer data\"\n        );\n        require(\n            requests[_userName].bankAddress != address(0),\n            \"Customer is not present in the KYC requests\"\n        );\n        require(\n            banks[msg.sender].ethAddress != address(0),\n            \"only a bank can call the function\"\n        );\n\n        customers[_userName].userName = _userName;\n        customers[_userName].data = _customerData;\n        customers[_userName].kycStatus = false;\n        customers[_userName].downvotes = 0;\n        customers[_userName].upvotes = 0;\n\n        //bank in customer struct is the bank that initialized the customer initially for KYC\n        customers[_userName].bank = requests[_userName].bankAddress;\n    }\n\n    function removeRequests(string memory _userName) public {\n        require(\n            requests[_userName].bankAddress != address(0),\n            \"Customer is not present in the KYC requests\"\n        );\n        require(\n            banks[msg.sender].ethAddress != address(0),\n            \"only a bank can call the function\"\n        );\n\n        delete requests[_userName];\n    }\n\n    function viewCustomer(string memory _userName)\n        public\n        view\n        returns (\n            string memory,\n            string memory,\n            bool,\n            uint256,\n            uint256,\n            address\n        )\n    {\n        require(\n            customers[_userName].bank != address(0),\n            \"Customer is not present in the database\"\n        );\n        require(\n            banks[msg.sender].ethAddress != address(0),\n            \"only a bank can call the function\"\n        );\n\n        return (\n            customers[_userName].userName,\n            customers[_userName].data,\n            customers[_userName].kycStatus,\n            customers[_userName].downvotes,\n            customers[_userName].upvotes,\n            customers[_userName].bank\n        );\n    }\n\n    function upvoteCustomer(string memory _userName) public {\n        require(\n            customers[_userName].bank != address(0),\n            \"Customer is not present in the database\"\n        );\n        require(\n            banks[msg.sender].ethAddress != address(0),\n            \"only a bank can call the function\"\n        );\n        require(banks[msg.sender].allowedToVote, \"bank is not allowed to vote\");\n        require(\n            !hasVotedforCustomer[_userName][msg.sender],\n            \"the bank has already voted for the customer\"\n        );\n\n        customers[_userName].upvotes += 1;\n        hasVotedforCustomer[_userName][msg.sender] = true; //only one vote for a bank\n\n        //check for number of upvotes to number of downvotes\n        //if upvotes are greater and upvotes + downvotes == totalBanks, then kycStatus is true\n        if (\n            customers[_userName].upvotes + customers[_userName].downvotes ==\n            totalBanks &&\n            customers[_userName].upvotes > customers[_userName].downvotes\n        ) {\n            customers[_userName].kycStatus = true;\n        }\n\n        //if number of downvotes is greater than a third of all the banks,\n        //kycStatus is set to false\n        if (customers[_userName].downvotes > totalBanks / 3) {\n            customers[_userName].kycStatus = false;\n        }\n    }\n\n    function downvoteCustomer(string memory _userName) public {\n        require(\n            customers[_userName].bank != address(0),\n            \"Customer is not present in the database\"\n        );\n        require(\n            banks[msg.sender].ethAddress != address(0),\n            \"only a bank can call the function\"\n        );\n        require(banks[msg.sender].allowedToVote, \"bank is not allowed to vote\");\n        require(\n            !hasVotedforCustomer[_userName][msg.sender],\n            \"the bank has already voted for the customer\"\n        );\n\n        customers[_userName].downvotes += 1;\n        hasVotedforCustomer[_userName][msg.sender] = true; //only one vote for a bank\n\n        //check for number of upvotes to number of downvotes\n        //if upvotes are greater and upvotes + downvotes == totalBanks, then kycStatus is true\n        if (\n            customers[_userName].upvotes + customers[_userName].downvotes ==\n            totalBanks &&\n            customers[_userName].upvotes > customers[_userName].downvotes\n        ) {\n            customers[_userName].kycStatus = true;\n        }\n\n        //if number of downvotes is greater than a third of all the banks,\n        //kycStatus is set to false\n        if (customers[_userName].downvotes > totalBanks / 3) {\n            customers[_userName].kycStatus = false;\n        }\n    }\n\n    function modifyCustomer(\n        string memory _userName,\n        string memory _newcustomerData\n    ) public {\n        require(\n            customers[_userName].bank != address(0),\n            \"Customer is not present in the database\"\n        );\n        require(\n            banks[msg.sender].ethAddress != address(0),\n            \"only a bank can call the function\"\n        );\n\n        customers[_userName].data = _newcustomerData;\n        customers[_userName].upvotes = 0;\n        customers[_userName].downvotes = 0;\n\n        //as per the problem statement, once modified, the customer is deleted from KYC_requests list\n        delete requests[_userName];\n    }\n\n    function getBankComplaints(address _bankAddress)\n        public\n        view\n        returns (uint256)\n    {\n        require(\n            banks[_bankAddress].ethAddress != address(0),\n            \"bank does not exist\"\n        );\n        require(\n            banks[msg.sender].ethAddress != address(0),\n            \"only a bank can call the function\"\n        );\n\n        return banks[_bankAddress].complaintsReported;\n    }\n\n    function viewBankDetails(address _bankAddress)\n        public\n        view\n        returns (\n            string memory,\n            address,\n            uint256,\n            uint256,\n            bool,\n            string memory\n        )\n    {\n        require(\n            banks[_bankAddress].ethAddress != address(0),\n            \"bank does not exist\"\n        );\n        require(\n            banks[msg.sender].ethAddress != address(0),\n            \"only a bank can call the function\"\n        );\n\n        return (\n            banks[_bankAddress].name,\n            banks[_bankAddress].ethAddress,\n            banks[_bankAddress].complaintsReported,\n            banks[_bankAddress].KYC_count,\n            banks[_bankAddress].allowedToVote,\n            banks[_bankAddress].regNumber\n        );\n    }\n\n    function reportBank(address _bankAddress) public {\n        require(\n            banks[_bankAddress].ethAddress != address(0),\n            \"bank does not exist\"\n        );\n        require(\n            banks[msg.sender].ethAddress != address(0),\n            \"only a bank can call the function\"\n        );\n        require(!hasVotedForBank[_bankAddress][msg.sender], \"already reported\");\n\n        banks[_bankAddress].complaintsReported += 1;\n        hasVotedForBank[_bankAddress][msg.sender] = true; //a bank can report another bank only once\n\n        //if the number of complaints reported is greter than a third of total banks\n        //then it can no longer vote\n        if (banks[_bankAddress].complaintsReported > totalBanks / 3) {\n            banks[_bankAddress].allowedToVote = false;\n        }\n    }\n}\n",
  "sourcePath": "/Users/np/Desktop/iiit-b projects/KYC assignment/phase 3/KYC-SC/contracts/KYC.sol",
  "compiler": {
    "name": "solc",
    "version": "0.8.8+commit.dddeac2f.Emscripten.clang"
  },
  "schemaVersion": "3.4.3",
  "updatedAt": "2021-09-28T13:42:13.231Z",
  "devdoc": {
    "kind": "dev",
    "methods": {},
    "version": 1
  },
  "userdoc": {
    "kind": "user",
    "methods": {},
    "version": 1
  }
}